{
    "contractName": "ReviewSystem",
    "abi": [
        {
            "inputs": [
                {
                    "internalType": "bytes32",
                    "name": "_id",
                    "type": "bytes32"
                },
                {
                    "internalType": "string",
                    "name": "_title",
                    "type": "string"
                },
                {
                    "internalType": "uint8",
                    "name": "_rating",
                    "type": "uint8"
                },
                {
                    "internalType": "string",
                    "name": "_text",
                    "type": "string"
                }
            ],
            "name": "addReview",
            "outputs": [],
            "stateMutability": "nonpayable",
            "type": "function"
        },
        {
            "inputs": [
                {
                    "internalType": "address",
                    "name": "_address",
                    "type": "address"
                }
            ],
            "name": "getReviewsForAddress",
            "outputs": [
                {
                    "components": [
                        {
                            "internalType": "string",
                            "name": "title",
                            "type": "string"
                        },
                        {
                            "internalType": "uint256",
                            "name": "date",
                            "type": "uint256"
                        },
                        {
                            "internalType": "uint8",
                            "name": "rating",
                            "type": "uint8"
                        },
                        {
                            "internalType": "string",
                            "name": "text",
                            "type": "string"
                        }
                    ],
                    "internalType": "struct ReviewLibrary.Review[]",
                    "name": "",
                    "type": "tuple[]"
                }
            ],
            "stateMutability": "view",
            "type": "function"
        },
        {
            "inputs": [
                {
                    "internalType": "bytes32",
                    "name": "_id",
                    "type": "bytes32"
                },
                {
                    "internalType": "address",
                    "name": "_address",
                    "type": "address"
                }
            ],
            "name": "getTransactionById",
            "outputs": [
                {
                    "components": [
                        {
                            "internalType": "address",
                            "name": "sender",
                            "type": "address"
                        },
                        {
                            "internalType": "address",
                            "name": "receiver",
                            "type": "address"
                        },
                        {
                            "internalType": "uint256",
                            "name": "amount",
                            "type": "uint256"
                        },
                        {
                            "internalType": "uint256",
                            "name": "date",
                            "type": "uint256"
                        },
                        {
                            "internalType": "bytes32",
                            "name": "id",
                            "type": "bytes32"
                        }
                    ],
                    "internalType": "struct TransactionLibrary.Transaction",
                    "name": "",
                    "type": "tuple"
                }
            ],
            "stateMutability": "view",
            "type": "function"
        },
        {
            "inputs": [
                {
                    "internalType": "address",
                    "name": "_address",
                    "type": "address"
                }
            ],
            "name": "getUnreviewedTransactionIDs",
            "outputs": [
                {
                    "internalType": "bytes32[]",
                    "name": "",
                    "type": "bytes32[]"
                }
            ],
            "stateMutability": "view",
            "type": "function"
        },
        {
            "inputs": [
                {
                    "internalType": "address",
                    "name": "_receiver",
                    "type": "address"
                }
            ],
            "name": "sendTransaction",
            "outputs": [],
            "stateMutability": "payable",
            "type": "function"
        }
    ],
    "bytecode": "608060405234801561001057600080fd5b5061132a806100206000396000f3fe60806040526004361061004a5760003560e01c80630c5e41651461004f5780632bd123fe146100c3578063381b8b5f146100d8578063554e7d1c146100f8578063869486b914610125575b600080fd5b34801561005b57600080fd5b5061006f61006a366004610eab565b610152565b6040516100ba919081516001600160a01b0390811682526020808401519091169082015260408083015190820152606080830151908201526080918201519181019190915260a00190565b60405180910390f35b6100d66100d1366004610ed7565b6101a3565b005b3480156100e457600080fd5b506100d66100f3366004610f95565b61032b565b34801561010457600080fd5b50610118610113366004610ed7565b61081d565b6040516100ba919061101d565b34801561013157600080fd5b50610145610140366004610ed7565b610a1e565b6040516100ba91906110a7565b6040805160a0810182526000808252602080830182905282840182905260608301829052608083018290526001600160a01b03851682528190529190912061019a9084610d6a565b90505b92915050565b600034116102075760405162461bcd60e51b815260206004820152602660248201527f5468652073656e7420616d6f756e74206d75737420626520677265617465722060448201526507468616e20360d41b60648201526084015b60405180910390fd5b6040516bffffffffffffffffffffffff1933606090811b8216602084015283901b16603482015234604882015242606882015260009060880160408051808303601f19018152828252805160209182012033600081815280845284812060a0870186529186526001600160a01b0380891685880190815234968801968752426060890190815260808901868152855460018082018855968652979094209851600590970290980180546001600160a01b031990811697841697909717815590519381018054909616939091169290921790935592516002840155925160038301555160049091015590506040516001600160a01b038316903480156108fc02916000818181858888f19350505050158015610326573d6000803e3d6000fd5b505050565b60405163d92c628f60e01b81526000600482015233602482015260448101859052849073__$2e0e1aff486903921801560580a8aca89d$__9063d92c628f90606401602060405180830381865af415801561038a573d6000803e3d6000fd5b505050506040513d601f19601f820116820180604052508101906103ae9190611146565b6104065760405162461bcd60e51b8152602060048201526024808201527f5472616e73616374696f6e2073656e646572206973206e6f7420617574686f726044820152631a5e995960e21b60648201526084016101fe565b3360009081526020819052604090205485906104735760405162461bcd60e51b815260206004820152602660248201527f4e6f207472616e73616374696f6e7320666f756e6420666f722074686973206160448201526564647265737360d01b60648201526084016101fe565b3360009081526020818152604080832080548251818502810185019093528083529192909190849084015b8282101561050a5760008481526020908190206040805160a0810182526005860290920180546001600160a01b0390811684526001808301549091168486015260028201549284019290925260038101546060840152600401546080830152908352909201910161049e565b5050505090506000805b825181101561055c57838382815181106105305761053061116f565b6020026020010151608001510361054a576001915061055c565b8061055481611185565b915050610514565b50806105d05760405162461bcd60e51b815260206004820152603760248201527f4e6f207472616e73616374696f6e20666f756e6420776974682074686520676960448201527f76656e20494420666f722074686973206164647265737300000000000000000060648201526084016101fe565b600088815260016020526040902060030180548991906105ef906111ac565b1590506106535760405162461bcd60e51b815260206004820152602c60248201527f412072657669657720666f722074686973207472616e73616374696f6e20616c60448201526b72656164792065786973747360a01b60648201526084016101fe565b6032885111156106bf5760405162461bcd60e51b815260206004820152603160248201527f5469746c65206d757374206265206c657373207468616e206f7220657175616c60448201527020746f203530206368617261637465727360781b60648201526084016101fe565b60018760ff16101580156106d7575060058760ff1611155b6107235760405162461bcd60e51b815260206004820152601e60248201527f526174696e67206d757374206265206265747765656e203120616e642035000060448201526064016101fe565b6101f4865111156107905760405162461bcd60e51b815260206004820152603160248201527f54657874206d757374206265206c657373207468616e206f7220657175616c20604482015270746f20353030206368617261637465727360781b60648201526084016101fe565b604080516080810182528981524260208083019190915260ff8a16828401526060820189905260008c8152600190915291909120815182919081906107d59082611234565b5060208201516001820155604082015160028201805460ff191660ff9092169190911790556060820151600382019061080e9082611234565b50505050505050505050505050565b60606000805b6001600160a01b0384166000908152602081905260409020548110156108c9576001600160a01b038416600090815260208190526040812080546001929190849081106108725761087261116f565b906000526020600020906005020160040154815260200190815260200160002060030180546108a0906111ac565b90506000036108b757816108b381611185565b9250505b806108c181611185565b915050610823565b5060008167ffffffffffffffff8111156108e5576108e5610ef2565b60405190808252806020026020018201604052801561090e578160200160208202803683370190505b5090506000805b6001600160a01b038616600090815260208190526040902054811015610a14576001600160a01b038616600090815260208190526040812080546001929190849081106109645761096461116f565b90600052602060002090600502016004015481526020019081526020016000206003018054610992906111ac565b9050600003610a02576001600160a01b03861660009081526020819052604090208054829081106109c5576109c561116f565b9060005260206000209060050201600401548383815181106109e9576109e961116f565b6020908102919091010152816109fe81611185565b9250505b80610a0c81611185565b915050610915565b5090949350505050565b60606000805b6001600160a01b038416600090815260208190526040902054811015610ac9576001600160a01b03841660009081526020819052604081208054600191839185908110610a7357610a7361116f565b90600052602060002090600502016004015481526020019081526020016000206003018054610aa1906111ac565b90501115610ab75781610ab381611185565b9250505b80610ac181611185565b915050610a24565b5060008167ffffffffffffffff811115610ae557610ae5610ef2565b604051908082528060200260200182016040528015610b4457816020015b610b3160405180608001604052806060815260200160008152602001600060ff168152602001606081525090565b815260200190600190039081610b035790505b5090506000805b6001600160a01b038616600090815260208190526040902054811015610a14576001600160a01b0386166000908152602081905260408120805483908110610b9557610b9561116f565b90600052602060002090600502016004015490506000600160008381526020019081526020016000206003018054610bcc906111ac565b90501115610d575760008181526001602052604090819020815160808101909252805482908290610bfc906111ac565b80601f0160208091040260200160405190810160405280929190818152602001828054610c28906111ac565b8015610c755780601f10610c4a57610100808354040283529160200191610c75565b820191906000526020600020905b815481529060010190602001808311610c5857829003601f168201915b505050918352505060018201546020820152600282015460ff166040820152600382018054606090920191610ca9906111ac565b80601f0160208091040260200160405190810160405280929190818152602001828054610cd5906111ac565b8015610d225780601f10610cf757610100808354040283529160200191610d22565b820191906000526020600020905b815481529060010190602001808311610d0557829003601f168201915b505050505081525050848481518110610d3d57610d3d61116f565b60200260200101819052508280610d5390611185565b9350505b5080610d6281611185565b915050610b4b565b6040805160a0810182526000808252602082018190529181018290526060810182905260808101829052905b8354811015610e4d5782848281548110610db257610db261116f565b90600052602060002090600502016004015403610e3b57838181548110610ddb57610ddb61116f565b60009182526020918290206040805160a081018252600590930290910180546001600160a01b03908116845260018201541693830193909352600283015490820152600382015460608201526004909101546080820152915061019d9050565b80610e4581611185565b915050610d96565b5060405162461bcd60e51b81526020600482015260166024820152752a3930b739b0b1ba34b7b7103737ba103337bab7321760511b60448201526064016101fe565b80356001600160a01b0381168114610ea657600080fd5b919050565b60008060408385031215610ebe57600080fd5b82359150610ece60208401610e8f565b90509250929050565b600060208284031215610ee957600080fd5b61019a82610e8f565b634e487b7160e01b600052604160045260246000fd5b600082601f830112610f1957600080fd5b813567ffffffffffffffff80821115610f3457610f34610ef2565b604051601f8301601f19908116603f01168101908282118183101715610f5c57610f5c610ef2565b81604052838152866020858801011115610f7557600080fd5b836020870160208301376000602085830101528094505050505092915050565b60008060008060808587031215610fab57600080fd5b84359350602085013567ffffffffffffffff80821115610fca57600080fd5b610fd688838901610f08565b94506040870135915060ff82168214610fee57600080fd5b9092506060860135908082111561100457600080fd5b5061101187828801610f08565b91505092959194509250565b6020808252825182820181905260009190848201906040850190845b8181101561105557835183529284019291840191600101611039565b50909695505050505050565b6000815180845260005b818110156110875760208185018101518683018201520161106b565b506000602082860101526020601f19601f83011685010191505092915050565b60006020808301818452808551808352604092508286019150828160051b87010184880160005b8381101561113857603f198984030185528151608081518186526110f482870182611061565b915050888201518986015260ff888301511688860152606080830151925085820381870152506111248183611061565b9689019694505050908601906001016110ce565b509098975050505050505050565b60006020828403121561115857600080fd5b8151801515811461116857600080fd5b9392505050565b634e487b7160e01b600052603260045260246000fd5b6000600182016111a557634e487b7160e01b600052601160045260246000fd5b5060010190565b600181811c908216806111c057607f821691505b6020821081036111e057634e487b7160e01b600052602260045260246000fd5b50919050565b601f82111561032657600081815260208120601f850160051c8101602086101561120d5750805b601f850160051c820191505b8181101561122c57828155600101611219565b505050505050565b815167ffffffffffffffff81111561124e5761124e610ef2565b6112628161125c84546111ac565b846111e6565b602080601f831160018114611297576000841561127f5750858301515b600019600386901b1c1916600185901b17855561122c565b600085815260208120601f198616915b828110156112c6578886015182559484019460019091019084016112a7565b50858210156112e45787850151600019600388901b60f8161c191681555b5050505050600190811b0190555056fea2646970667358221220cfda438d49d48bc03f92648847135fb8f54b04085e768689c235645c8e7f501964736f6c63430008130033",
    "sourcePath": "/home/nicolo/Documents/swe/swemming/trustify-smart_contract/contracts/ReviewSystem.sol",
    "compiler": {
        "name": "solc",
        "version": "0.8.19+commit.7dd6d404"
    },
    "functionHashes": {
        "addReview(bytes32,string,uint8,string)": "381b8b5f",
        "getReviewsForAddress(address)": "869486b9",
        "getTransactionById(bytes32,address)": "0c5e4165",
        "getUnreviewedTransactionIDs(address)": "554e7d1c",
        "sendTransaction(address)": "2bd123fe"
    },
    "gasEstimates": {
        "creation": {
            "codeDepositCost": "981200",
            "executionCost": "1021",
            "totalCost": "982221"
        },
        "external": {
            "addReview(bytes32,string,uint8,string)": "infinite",
            "getReviewsForAddress(address)": "infinite",
            "getTransactionById(bytes32,address)": "infinite",
            "getUnreviewedTransactionIDs(address)": "infinite",
            "sendTransaction(address)": "infinite"
        }
    }
}